:020000040000FA
:1000000060020020ED020000F5020000F70200008F
:10001000F9020000FB020000FD02000000000000E9
:10002000000000000000000000000000FF020000CF
:1000300001030000000000000303000005030000AE
:1000400007030000090300000B0300000D0300007C
:100050000F0300001103000013030000150300004C
:1000600017030000190300001B0300001D0300001C
:100070001F030000210300002303000025030000EC
:1000800027030000290300002B0300002D030000BC
:100090002F0300003103000033030000350300008C
:1000A00037030000390300003B0300003D0300005C
:1000B0003F0300004103000043030000450300002C
:1000C00047030000490300004B0300004D030000FC
:1000D0004F030000510300005303000055030000CC
:1000E0005703000059030000000000005B030000FC
:1000F0005D0300005F030000610300006303000074
:100100006503000067030000690300006B03000043
:1001100000000000000000006D0300006F030000FD
:1001200071030000730300007503000077030000F3
:10013000790300007B0300007D0300007F030000C3
:1001400000000000000000000000000000000000AF
:100150008103000083030000850300008703000083
:10016000000000000000000000000000000000008F
:10017000000000000000000000000000000000007F
:10018000000000000000000000000000000000006F
:10019000000000000000000000000000000000005F
:1001A000000000000000000000000000000000004F
:1001B000890300008B0300008D0300008F03000003
:1001C00091030000930300009503000097030000D3
:1001D000990300009B0300009D0300009F030000A3
:1001E000A1030000A3030000A5030000000000001D
:1001F00000000000A7030000A9030000AB030000FB
:10020000AD030000AF03000000000000000000008C
:10021000B1030000B3030000B5030000B703000002
:10022000B9030000BB030000BD030000BF030000D2
:10023000C1030000C3030000C5030000C7030000A2
:10024000C9030000CB030000CD030000CF03000072
:10025000D1030000D3030000D5030000D703000042
:10026000D9030000DB030000DD03000000F002F80A
:1002700000F02CF80AA090E8000C82448344AAF114
:100280000107DA4501D100F021F8AFF2090EBAE812
:100290000F0013F0010F18BFFB1A43F001031847BA
:1002A000A8020000B8020000002300240025002658
:1002B000103A28BF78C1FBD8520728BF30C148BFC9
:1002C0000B6070471FB51FBD10B510BD00F09BF847
:1002D0001146FFF7F7FF00F001F900F0B9F803B499
:1002E000FFF7F2FF03BC00F0C1F800003F48804771
:1002F0003F480047FEE7FEE7FEE7FEE7FEE7FEE7D2
:10030000FEE7FEE7FEE7FEE7FEE7FEE7FEE7FEE7C5
:10031000FEE7FEE7FEE7FEE7FEE7FEE7FEE7FEE7B5
:10032000FEE7FEE7FEE7FEE7FEE7FEE7FEE7FEE7A5
:10033000FEE7FEE7FEE7FEE7FEE7FEE7FEE7FEE795
:10034000FEE7FEE7FEE7FEE7FEE7FEE7FEE7FEE785
:10035000FEE7FEE7FEE7FEE7FEE7FEE7FEE7FEE775
:10036000FEE7FEE7FEE7FEE7FEE7FEE7FEE7FEE765
:10037000FEE7FEE7FEE7FEE7FEE7FEE7FEE7FEE755
:10038000FEE7FEE7FEE7FEE7FEE7FEE7FEE7FEE745
:10039000FEE7FEE7FEE7FEE7FEE7FEE7FEE7FEE735
:1003A000FEE7FEE7FEE7FEE7FEE7FEE7FEE7FEE725
:1003B000FEE7FEE7FEE7FEE7FEE7FEE7FEE7FEE715
:1003C000FEE7FEE7FEE7FEE7FEE7FEE7FEE7FEE705
:1003D000FEE7FEE7FEE7FEE7FEE7FEE7FEE70000DA
:1003E00004480549034A054B704700007D0400009E
:1003F0006D0200006000002060020020600000200C
:10040000704770477047754600F02CF8AE460500FF
:100410006946534620F00700854618B020B5FFF71F
:10042000DFFFBDE820404FF000064FF000074FF01F
:1004300000084FF0000BAC46ACE8C009ACE8C009BE
:10044000ACE8C009ACE8C00921F007018D4670474F
:1004500010B50446AFF300802046BDE81040FFF71A
:100460003EBF0000004870470000002001491820EE
:10047000ABBEFEE726000200704700004EF26000AF
:1004800042F61002C4F20F00C0F28072026143F61D
:10049000D122C0F28E72026040F64252C0F29E1229
:1004A00002F50053036040F6000340F2425CC0F2E4
:1004B0008013C0F2DE1C03F5005101610CF50061F0
:1004C00002600361016000BF50F8101C4906FBD5B3
:1004D0004FF0C071C0F800C00161704781B04EF2AA
:1004E0000860C4F20F00016841F02001016000BF04
:1004F000D0F800148906FBD545F2004CC4F2020C7A
:10050000DCF80010002341F00E01CCF80010DCF8FC
:100510001C214DF2004142F00E02C0F23001CCF835
:100520001C21002204E000BF0133082B08BF002378
:1005300058004CF8040C009200988842F4D20098BD
:1005400001300090F8E7000058050000000000208E
:0805500060020000A802000097
:04000005000002ED08
:00000001FF
